:100000000C943E000C9466000C9466000C94660000
:100010000C9466000C9466000C9466000C946600C8
:100020000C9466000C9466000C9466000C946600B8
:100030000C9466000C9437040C9466000C946600D3
:100040000C9466000C9466000C9466000C94660098
:100050000C9466000C9466000C9466000C94660088
:100060000C9466000C9466004F061207F107F70720
:100070003C08F10789080309F107970411241FBE02
:10008000CFEFD8E0DEBFCDBF12E0A0E0B1E0E2E20A
:10009000FAE102C005900D92AA3CB107D9F723E01E
:1000A000AAECB2E001C01D92A133B207E1F710E063
:1000B000CEE3D0E004C02197FE010E94220BCD3395
:1000C000D107C9F70E9480050C940F0D0C94000015
:1000D000CF92DF92EF92FF92CF93DF9322E024BD85
:1000E0008138910520F425BDC8E0D0E00DC08130F5
:1000F00024E0920728F423E025BDC0E4D0E004C04A
:1001000024E025BDC0E0D1E016BCBC0180E090E059
:100110000E94140C6B017C01BE0180E090E00E9403
:10012000140C20E030E040E85DE30E94A20C9B014B
:10013000AC01C701B6010E94730B0E94E50B67BDBD
:10014000A89AA89BFECFDF91CF91FF90EF90DF9010
:10015000CF9008950F931F93CF93DF938C01C0E04E
:10016000D0E0C017D10731F088EE93E00E9468001C
:100170002196F7CFDF91CF911F910F9108950F93A3
:100180001F93CF93DF93EC010F8110E080E197E2A2
:100190000E9468008BB18077801719F010E0082F5B
:1001A000F5CF1F5F1430D8F389B180778F839A81A0
:1001B000FE01E90FF11D83838035B1F0803619F01F
:1001C0008033A1F522C089818B3061F020F4873023
:1001D00069F58AE232C08D3019F08E3049F126C0BF
:1001E00084E32BC087E329C089818B3061F020F440
:1001F0008730E1F480E321C08D3019F08E30D1F0EA
:1002000015C085E31AC088E318C089818B3061F07E
:1002100020F4873059F483E210C08D3019F08E300D
:1002200059F004C086E309C089E307C080E005C037
:1002300081E303C082E301C083E3DF91CF911F918B
:100240000F910895FC0181818B3071F088F08D3021
:1002500031F08E3069F48DE0818381E003C08BE062
:10026000818382E0828307C087E0818383E0FACFC5
:100270008EE0818312828BB1807F8BB99BB18181AB
:10028000892B8BB90895CF93DF93D82FC0E0C1118C
:1002900018C0809127039091280329B12077FC0191
:1002A00027833281E30FF11D3381231719F00E9458
:1002B000BF00C82F80912703909128030E9422013C
:1002C000E6CF80ED8C0F181614F0C0E0E2CFD817FF
:1002D000E4F3DF91CF910895CF9382E00E94430130
:1002E000813021F0823019F4C0E001C0C1E08C2FD0
:1002F000CF910895299A85B18F7085B985B1962FD0
:10030000907F892B85B92998299A85B18F7085B9F5
:1003100025B130E16302C0011124822B85B92998EF
:10032000613019F088E290E002C088E696E00C9413
:100330006800623009F440644150642F60680C9496
:100340007A01EF92FF920F931F93CF938C017B0161
:10035000289AC0E0F701EC0FF11D6081662329F0B7
:10036000C8010E947A01CF5FF5CF2898CF911F91E5
:100370000F91FF90EF9008951F93CF93DF93EC01BF
:10038000162F41E00E94990164E071E0CE010E94C5
:10039000A10141E0612FCE01DF91CF911F910C941B
:1003A0009901EF92FF920F931F93CF93DF93EC018C
:1003B0007B018A0161E00E94BC01B701CE010E946D
:1003C000A10162E0CE010E94BC01B801CE01DF9123
:1003D000CF911F910F91FF90EF900C94A101CF93BB
:1003E000DF93EC0162E00E94BC0161E0CE01DF918D
:1003F000CF910C94BC01289A0E947A012898089504
:10040000EF92FF920F931F93CF93DF93EC017B0149
:10041000042F89B180778F839A81FE01E90FF11D46
:100420009381891729F0CE010E94BF00182F01C0C7
:1004300010E0CE010E942201112309F43FC048813F
:100440004F5F62E0C7010E949901888181110AC053
:1004500062E0C7010E94BC0148814F5F62E0C701B2
:100460000E949901002311F0612F01C06AE2C701C7
:100470000E94FB01612F70E060537109988144E094
:1004800050E0491B510980E021E030E0EAE0A82F6C
:10049000B0E0A417B50744F4D901EA9F9001EB9F9F
:1004A000300D11248F5FF3CF629FA001639F500D29
:1004B000729F500D11249F5F988302C040E050E06E
:1004C000CA01DF91CF911F910F91FF90EF90089596
:1004D000EF92FF920F931F93CF93DF931F92CDB7AD
:1004E000DEB7E0912703F09128031082E12CF12C74
:1004F000082F880F110B41E0BE016F5F7F4F809185
:100500002703909128030E940002E80EF91EE09153
:100510002703F0912803808190E0801791075CF316
:1005200025E030E0201B310B80E061E070E09AE0D4
:10053000482F50E04217530744F4AB01949FB00199
:10054000959F700D11248F5FF3CFC7010E94EF0AB2
:10055000CB010F90DF91CF911F910F91FF90EF9002
:1005600008958F929F92AF92BF92CF92DF92EF92B7
:10057000FF920F931F93CF93DF93EC016A017B01EE
:10058000CB01BA0120E13EE040E050E00E94030BC5
:10059000022F832E942EA52EC701B60120EA3CE837
:1005A00040E050E00E94030BB22E60E3620FCE01E8
:1005B0000E94FB0116EF60E3600F1B9D600D11248C
:1005C000CE010E94FB016AE3CE010E94FB01A0EF75
:1005D000B1EF202F382D492D5A2D0E943D0BC60E0C
:1005E000D71EE81EF91EC701B6012CE330E040E03B
:1005F00050E00E94030B022F832E942EA52EC701DC
:10060000B60128E532E040E050E00E94030BB22E34
:1006100060E3620FCE010E94FB0160E3600F1B9D4F
:10062000600D1124CE010E94FB016AE3CE010E94FD
:10063000FB01A4ECBFEF202F382D492D5A2D0E942D
:100640003D0BC60ED71EE81EF91EC701B6012AE0F3
:1006500030E040E050E00E94030B022F60E3620FA5
:10066000CE010E94FB0180E38C0D682F109F600D6E
:100670001124CE01DF91CF911F910F91FF90EF9048
:10068000DF90CF90BF90AF909F908F900C94FB0124
:100690008F929F92AF92BF92DF92EF92FF920F9351
:1006A0001F93CF93DF932091F4028091F5029091F4
:1006B000F602222309F4B2C01092F4020E94EF0164
:1006C00065E171E08091F5029091F6020E94A1012E
:1006D0001092F30280901F0390902003A0902103BA
:1006E000B0902203D090FB02E090FC02F090FD025B
:1006F000D091FE02C0910703B0910803E4EFF2E04D
:10070000A0E080E090E0238D2223E9F0138E009199
:10071000EF021091F0022091F1023091F20247892C
:10072000508D618D728D041B150B260B370B8016B7
:100730009106A206B3063CF4C82FB92FD42EE52E9D
:10074000F62ED72FA1E00196359684309105D9F683
:10075000D092FB02E092FC02F092FD02D093FE02E6
:10076000C0930703B0930803AA2309F474C02B981D
:1007700041E062E08091F5029091F6020E949901B9
:1007800066E271E08091F5029091F6020E94A1016B
:1007900080ED97E00E94AA008091F5029091F60208
:1007A0000E94EF0120910703309108038091F50228
:1007B0009091F6022130310579F02CF4232B99F435
:1007C00063E371E00EC02230310549F0233031057A
:1007D00051F462E671E005C063E471E002C063E5D4
:1007E00071E00E94A10141E062E08091F5029091E8
:1007F000F6020E9499014091FB025091FC02609127
:10080000FD027091FE028091F5029091F6020E9425
:10081000B10280ED97E00E94AA001DC021E0209364
:10082000F4024091EF025091F0026091F102709158
:10083000F202409303035093040360930503709303
:1008400006030E94EF0161E771E08091F50290914B
:10085000F6020E94A101DF91CF911F910F91FF90AD
:10086000EF90DF90BF90AF909F908F9008951F9270
:100870000F920FB60F9211242F938F939F93AF93E4
:10088000BF938CED9BE09093850080938400B09A99
:100890008091D6029091D70201969093D7028093CF
:1008A000D6028091D6029091D702049761F580918B
:1008B000EF029091F002A091F102B091F202019644
:1008C000A11DB11D8093EF029093F002A093F1025D
:1008D000B093F2028091EF029091F002A091F102A8
:1008E000B091F20280389145A140B10544F01092D8
:1008F000EF021092F0021092F1021092F2021092A6
:10090000D7021092D6028091F302882329F095B184
:1009100084E0892785B901C02A98BF91AF919F9142
:100920008F912F910F900FBE0F901F9018958F925F
:100930009F92AF92BF92EF92FF920F931F93CF932C
:10094000DF938FEF84B92898299A85B18F7085B984
:100950002D9A299888E290E00E94680068E28EEE65
:1009600092E00E947A0166E08EEE92E00E947A01A7
:100970006CE08EEE92E00E947A0167E18EEE92E0EA
:100980000E947A0161E08EEE92E00E947A0110925C
:10099000800083E080938100109282008CED9BE0C8
:1009A000909385008093840084E294EF9093890073
:1009B00080938800B09A81E080936F0044EF5AE002
:1009C00061E070E04093EF025093F0026093F10217
:1009D0007093F2021092D7021092D6021092F30294
:1009E000509A519A529A539A5498559856985C9A9C
:1009F0005D9A5E9AA5EEB2E01C929EE011969C93E1
:100A0000119712961C9212979BB1907F9BB99BB144
:100A10009E609BB999B1907717969C93179790E732
:100A200013969C93139714969C93149715969C93E6
:100A3000159716969C9316972EED32E04DEE52E0E8
:100A4000E901598348831B821C821D821E828A838E
:100A5000E4EFF2E0138E10A215A212A6389839988E
:100A60003A983B983C9A3D9A579A9EE1892E912C50
:100A7000A12CB12C83A694A6A5A6B6A66EEEE62E52
:100A800062E0F62EF282E18254834383568B458BDB
:100A9000858316827AE5872E912CA12CB12C838632
:100AA0009486A586B6860BED12E06DE177E8E80145
:100AB000798368838A8368ED72E0C6E6AC2EC0E372
:100AC000BC2EEB01B982A8828A83C3E2D3E0F9820B
:100AD000E8825B834A83BD83AC83FF83EE833987DF
:100AE00028871B870A877D876C87DF91CF911F91AD
:100AF0000F91FF90EF90BF90AF909F908F900895CF
:100B0000CF93DF931F92CDB7DEB7789461E08EEE7E
:100B100092E00E94BC0141E061E08EEE92E00E9412
:100B2000990144EF5AE061E070E08EEE92E00E949D
:100B3000B102E12CF12C8091CE02811113C0809181
:100B4000000190910101A0910201B09103018093F5
:100B5000CA029093CB02A093CC02B093CD0201E0E5
:100B60000093CE028091EF029091F002A091F102E9
:100B7000B091F2028093000190930101A0930201D1
:100B8000B093030140910001509101016091020175
:100B9000709103018091CA029091CB02A091CC0286
:100BA000B091CD02481759076A077B0749F1809138
:100BB000000190910101A0910201B0910301809385
:100BC000CA029093CB02A093CC02B093CD02409086
:100BD000000150900101609002017090030161E0FA
:100BE0008EEE92E00E94BC0141E061E08EEE92E068
:100BF0000E949901B301A2018EEE92E00E94B1021F
:100C000040E0BE016F5F7F4F85EE92E00E940002E0
:100C1000E80EF91E8091E502853009F04FC313EF0D
:100C2000E11614E0F10609F0FFC210E08091230301
:100C3000909124030E94EF01113049F0123061F0CD
:100C4000111114C04FE751E060E971E009C04BE9B0
:100C500051E06CEA71E004C04DEB51E06EEC71E0E4
:100C600080912303909124030E94D10184E00E948B
:100C70004301282E880F3308F10123E01202E00D12
:100C8000F11D11243197E930F10508F0BCC2EC5C8C
:100C9000FF4F80912303909124030C94220B0E9418
:100CA000EF0167ED71E080912303909124030E948E
:100CB000A10141E062E080912303909124030E940E
:100CC000990160EE71E080912303909124030E94CA
:100CD000A1010E946C01082F8091230390912403AD
:100CE0000E94EF0141E062E0809123039091240390
:100CF0000E94990160EF71E0809123039091240399
:100D00000E94A10141E061E08091230390912403BE
:100D10000E9499016BEF71E080912303909124036D
:100D20000E94A1018091230390912403002341F0AC
:100D300061E30E94FB01E0902D03F0902E0307C0B9
:100D400062E30E94FB01E0902F03F09030030E94C9
:100D50006C01F70182836DC1833009F4D4C0813006
:100D600009F023C1C9010E94EF0162E372E08091A2
:100D70002303909124030E94A10141E062E080914D
:100D80002303909124030E94990182E00E9468024B
:100D90003C014997D4F7C090EF02D090F002E09068
:100DA000F102F090F202C701B60120E13EE040E01E
:100DB00050E00E94030BA0EFB1EF0E943D0BC60E66
:100DC000D71EE81EF91EC701B6012CE330E040E053
:100DD00050E00E94030B49015A0120E13EE0D3019B
:100DE0000E94280B2B013C01ACE3B0E0A50194016B
:100DF0000E942F0B460E571E681E791EA4ECBFEFF3
:100E00000E943D0BC60ED71EE81EF91E4C0C5D1C41
:100E10006E1C7F1C4092EF025092F0026092F10231
:100E20007092F20280912303909124030E94EF01BB
:100E300047E152E065E272E0809123039091240340
:100E40000E94D10184E00E9443012091230330914C
:100E50002403823009F080CFC9010E94EF016DE3C5
:100E600072E080912303909124030E94A10141E04C
:100E700062E080912303909124030E94990182E013
:100E80000E9468027C01CC97D4F74090EF0250900A
:100E9000F0026090F1027090F202C301B20120E111
:100EA0003EE040E050E00E94030B59016A01A0EFD0
:100EB000B1EF0E943D0B460E571E681E791EC301FE
:100EC000B2012CE330E040E050E00E94030BA4ECC0
:100ED000BFEF0E943D0B460E571E681E791EA0E113
:100EE000BEE0A60195010E942F0B5B016C012CE373
:100EF00030E0D7010E94280BDC01CB018A0D9B1D3D
:100F0000AC1DBD1D4DC0C9010E94EF016AE472E035
:100F100080912303909124030E94A10141E062E0AB
:100F200080912303909124030E94990182E00E9402
:100F300068027C01CC97D4F74090EF025090F00209
:100F40006090F1027090F202C301B20120E13EE034
:100F500040E050E00E94030B59016A01A0EFB1EF9D
:100F60000E943D0B640D751D861D971D2CE330E01E
:100F700040E050E00E94030BACE3B0E00E942F0B76
:100F80002B013C01A0E1BEE0A60195010E942F0BC0
:100F9000460E571E681E791EC701FF0CAA0BBB0B1D
:100FA000480E591E6A1E7B1E35CF843009F03ACF99
:100FB000E0912B03F0912C03138214821582168288
:100FC000E0912903F0912A038091EF029091F002C1
:100FD000A091F102B091F2028787908BA18BB28B26
:100FE00012C11F5F133008F40EC110E00CC10E9443
:100FF000EF0168E572E080912303909124030E9441
:10100000A10141E062E080912303909124030E94BA
:10101000990160EF71E080912303909124030E9475
:10102000A101E0902903F0902A030E946C01F701CE
:10103000858380912303909124030E94EF0164E053
:1010400072E080912303909124030E94A10141E06A
:1010500062E080912303909124030E9499016CE047
:1010600072E080912303909124030E94A10188EEF5
:1010700093E00E94AA00C7C00E94EF0169E672E0F7
:1010800080912303909124030E94A10141E062E03A
:1010900080912303909124030E94990160EF71E0F5
:1010A00080912303909124030E94A101E0902B03DF
:1010B000F0902C030E946C01F7018283809123033E
:1010C000909124030E94EF0164E072E08091230379
:1010D000909124030E94A10141E062E080912303EA
:1010E000909124030E9499016CE072E080912303A7
:1010F000909124030E94A10188EE93E00E94AA002F
:10110000E0912B03F0912C03138214821582168236
:101110007AC00E94EF016AE772E080912303909108
:1011200024030E94A10141E062E080912303909199
:1011300024030E94990167E872E080912303909153
:1011400024030E94A1010E946C01082F80912303B7
:10115000909124030E94EF01809123039091240336
:10116000002349F168E972E00E94A10141E062E0D8
:1011700080912303909124030E949901E090290318
:10118000F0902A0383E00E946802A0E0B0E0F7013B
:1011900083879487A587B687E0912903F0912A0376
:1011A00083859485A585B6858F3F9105A105B105F9
:1011B00009F024F728C069EA72E00E94A10141E029
:1011C00062E080912303909124030E949901E090B2
:1011D0002903F0902A0383E00E946802A0E0B0E0B7
:1011E000F70183A794A7A5A7B6A7E0912903F091DB
:1011F0002A0383A594A5A5A5B6A58F3F9105A105B2
:10120000B10509F024F7F3E01F02200C311C112472
:1012100008E02016310409F009CD80912303909154
:1012200024030E94EF0146C08091DB029091DC0212
:10123000E816F90621F48091DD0281110BC080913E
:10124000D8029091D902E816F90639F48091DA02B1
:10125000882319F00E9448030BC062E08EEE92E0F2
:101260000E94BC016BEB72E08EEE92E00E94A10145
:1012700088EE93E00E94AA00C090EF02D090F002A6
:10128000E090F102F090F20261E08EEE92E00E94B6
:10129000BC0141E061E08EEE92E00E949901B7014D
:1012A000A6018EEE92E00E94B10262E08EEE92E024
:1012B0000E94BC011092E502E12CF12C8091F40215
:1012C000882309F495C08091EF029091F002A091DB
:1012D000F102B091F2024091030350910403609136
:1012E000050370910603841B950BA60BB70B409169
:1012F000FF025091000360910103709102034817AF
:1013000059076A077B070CF073C004EF12E0F8017D
:10131000838D811120C0359628E033E02E173F07DA
:10132000B9F784EFA82E82E0B82EC12CD12C86B15B
:1013300090E00C2C02C0959587950A94E2F780FD09
:1013400013C0FFEFCF1ADF0A25E0A20EB11C34E074
:10135000C316D10461F740911F035091200360919F
:101360002103709122032AC08CE291E00E94AA001E
:1013700086B190E00C2C02C0959587950A94E2F70F
:1013800080FFDFCF31E03093F302F501838D8111CF
:10139000D8CF8091EF029091F002A091F102B0912C
:1013A000F202878B908FA18FB28F338FCACF0B5FE2
:1013B0001F4F28E033E020173107D1F0F801838D6B
:1013C0008823A9F38091EF029091F002A091F1029D
:1013D000B091F2024788508C618C728C8419950907
:1013E000A609B709481759076A077B0704F72B9A1C
:1013F0008091EF029091F002A091F102B091F2027F
:1014000080369445A105B1058CF48091F9028823BA
:1014100069F08091FA02811109C031E03093FA023B
:101420008091F402811102C00E9448038091EF0272
:101430009091F002A091F102B091F20281369445B0
:10144000A105B1055CF08091FA02882339F0109271
:10145000FA028091F40281110E9448038091EF0208
:101460009091F002A091F102B091F20281339B4081
:10147000A140B1052CF08091E002811112C00DC095
:101480008091EF029091F002A091F102B091F202EE
:1014900080319E40A105B10574F3449845985F984A
:1014A0004ACB8091E1029091E202A091E302B091D7
:1014B000E402892B8A2B8B2B89F4449A8091EF02CA
:1014C0009091F002A091F102B091F2028093E102BA
:1014D0009093E202A093E302B093E4024091EF0202
:1014E0005091F0026091F1027091F2028091E1025C
:1014F0009091E202A091E302B091E402481B590BE3
:101500006A0B7B0B4C3351056105710509F4459A53
:101510004091EF025091F0026091F1027091F2025D
:10152000481B590B6A0B7B0B4A3551056105710548
:1015300009F444984091EF025091F0026091F10259
:101540007091F202481B590B6A0B7B0B463951050F
:101550006105710509F45F9A4091EF025091F00224
:101560006091F1027091F202481B590B6A0B7B0BE0
:10157000443B51056105710509F445984091EF021E
:101580005091F0026091F1027091F202481B590BE8
:101590006A0B7B0B423D51056105710509F45F98AB
:1015A0004091EF025091F0026091F1027091F202CD
:1015B0008A019B01081B190B2A0B3B0BD901C8019F
:1015C0008E309140A105B10509F0B5CA1092E10233
:1015D0001092E2021092E3021092E402ACCAAA1B3B
:1015E000BB1B51E107C0AA1FBB1FA617B70710F00E
:1015F000A61BB70B881F991F5A95A9F78095909540
:10160000BC01CD010895052E97FB1EF400940E94A5
:101610001A0B57FD07D00E94420B07FC03D04EF473
:101620000C941A0B50954095309521953F4F4F4F94
:101630005F4F089590958095709561957F4F8F4F7E
:101640009F4F0895EE0FFF1F0590F491E02D099430
:101650000E94640BB7FF0895821B930B08950E94AC
:10166000640BA59F900DB49F900DA49F800D911DBC
:1016700011240895B7FF0C942F0B0E942F0B821B8F
:10168000930B0895A1E21A2EAA1BBB1BFD010DC0EE
:10169000AA1FBB1FEE1FFF1FA217B307E407F50722
:1016A00020F0A21BB30BE40BF50B661F771F881FFE
:1016B000991F1A9469F760957095809590959B0194
:1016C000AC01BD01CF010895A29FB001B39FC0013D
:1016D000A39F700D811D1124911DB29F700D811D5E
:1016E0001124911D08950E94870B0C94680C0E9490
:1016F000610C58F00E945A0C40F029F45F3F29F029
:101700000C94510C51110C949C0C0C94570C0E948D
:10171000790C68F39923B1F3552391F3951B550B7D
:10172000BB27AA2762177307840738F09F5F5F4FB4
:10173000220F331F441FAA1FA9F335D00E2E3AF0F3
:10174000E0E832D091505040E695001CCAF72BD00B
:10175000FE2F29D0660F771F881FBB1F261737075C
:101760004807AB07B0E809F0BB0B802DBF01FF278E
:1017700093585F4F3AF09E3F510578F00C94510C0E
:101780000C949C0C5F3FE4F3983ED4F386957795D8
:101790006795B795F7959F5FC9F7880F911D969547
:1017A000879597F90895E1E0660F771F881FBB1FA3
:1017B000621773078407BA0720F0621B730B840B50
:1017C000BA0BEE1F88F7E09508950E94810C88F00F
:1017D0009F5798F0B92F9927B751B0F0E1F0660FF5
:1017E000771F881F991F1AF0BA95C9F714C0B13036
:1017F00091F00E949B0CB1E008950C949B0C672F14
:10180000782F8827B85F39F0B93FCCF38695779564
:101810006795B395D9F73EF490958095709561954D
:101820007F4F8F4F9F4F0895E89409C097FB3EF478
:1018300090958095709561957F4F8F4F9F4F99231D
:10184000A9F0F92F96E9BB279395F695879577959B
:101850006795B795F111F8CFFAF4BB0F11F460FF5B
:101860001BC06F5F7F4F8F4F9F4F16C0882311F0B3
:1018700096E911C0772321F09EE8872F762F05C0C7
:10188000662371F096E8862F70E060E02AF09A9562
:10189000660F771F881FDAF7880F9695879597F957
:1018A000089597F99F6780E870E060E008959FEFE2
:1018B00080EC089500240A941616170618060906E7
:1018C000089500240A9412161306140605060895B6
:1018D000092E0394000C11F4882352F0BB0F40F43E
:1018E000BF2B11F460FF04C06F5F7F4F8F4F9F4F7E
:1018F000089557FD9058440F551F59F05F3F71F000
:101900004795880F97FB991F61F09F3F79F0879566
:101910000895121613061406551FF2CF4695F1DFEF
:1019200008C0161617061806991FF1CF869571057F
:10193000610508940895E894BB2766277727CB01B3
:1019400097F908950E94B50C0C94680C0E945A0CEB
:1019500038F00E94610C20F0952311F00C94510C8A
:101960000C94570C11240C949C0C0E94790C70F36D
:10197000959FC1F3950F50E0551F629FF001729F34
:10198000BB27F00DB11D639FAA27F00DB11DAA1F43
:10199000649F6627B00DA11D661F829F2227B00D90
:1019A000A11D621F739FB00DA11D621F839FA00D1B
:1019B000611D221F749F3327A00D611D231F849F6B
:1019C000600D211D822F762F6A2F11249F575040C2
:1019D0009AF0F1F088234AF0EE0FFF1FBB1F661F3D
:1019E000771F881F91505040A9F79E3F510580F006
:1019F0000C94510C0C949C0C5F3FE4F3983ED4F390
:101A0000869577956795B795F795E7959F5FC1F7A9
:101A1000FE2B880F911D9695879597F90895F89458
:021A2000FFCFF6
:101A2200F40A010020202020202020202020202035
:101A32002020202000416C61726D65204465736135
:101A4200726D61646F00416C61726D6520746F63C9
:101A52006F750053656E736F72206A616E656C619B
:101A620020310053656E736F72206A616E656C611E
:101A720020320053656E736F7220706F7274612032
:101A8200310053656E736F7220706F727461203211
:101A920000416C61726D652041726D61646F00324C
:101AA2002D486F726172696F20332D4D6169730029
:101AB200312D5573756172696F7300322D53696DE3
:101AC200756C202020332D4D61697300312D4174D6
:101AD20069766163616F204E6F69746500322D53C0
:101AE20061697220202020332D4D61697300312DF0
:101AF20054656D706F7300557375C3A172696F0081
:101B0200312D557365723120322D55736572320055
:101B1200312D4F6E20322D4F6666005573756172FE
:101B2200696F20004573636F6C686100636F6E6656
:101B320069726D61646100332D5365672020342D15
:101B42005361697200312D486F726120322D4D69E7
:101B52006E004E6F766120486F72613A004E6F766A
:101B62006F204D696E75746F3A004E6F766F205319
:101B72006567756E646F3A00417469766163616F7F
:101B8200204E6F7475726E610053696D756C61637E
:101B9200616F20646520507265004E6F766F73200E
:101BA20074656D706F7300312D4C696761722032FC
:101BB2002D4465746563740054656D706F207061A7
:101BC2007261206C696761720054656D706F20707C
:101BD200617261206465746563740053454E4841C7
:0A1BE20020494E56414C4944410091
:00000001FF
