:100000000C943E000C9466000C9466000C94660000
:100010000C9466000C9466000C9466000C946600C8
:100020000C9466000C9466000C9466000C946600B8
:100030000C9466000C941B040C9466000C946600EF
:100040000C9466000C9466000C9466000C94660098
:100050000C9466000C9466000C9466000C94660088
:100060000C9466000C9466002D06EA06C307C907C7
:100070000E08C3072D08A708C3077B0411241FBE61
:10008000CFEFD8E0DEBFCDBF12E0A0E0B1E0E4E604
:10009000F9E102C005900D92AA3CB107D9F723E01F
:1000A000AAECB2E001C01D92A033B207E1F710E064
:1000B000CEE3D0E004C02197FE010E94C30ACD33F5
:1000C000D107C9F70E945E050C94B00C0C94000097
:1000D0008F929F92AF92BF92CF92DF92EF92FF9258
:1000E000C0901E03D0901F03E0902003F0902103E6
:1000F000E4EFF2E028E033E0828D8823A9F040911C
:10010000F0025091F1026091F2027091F302868840
:100110009788A08CB18C481959096A097B09C416C3
:10012000D506E606F7062CF035962E173F0721F781
:1001300080E0FF90EF90DF90CF90BF90AF909F90C6
:100140008F900895CF92DF92EF92FF92CF93DF933B
:1001500022E024BD8138910520F425BDC8E0D0E01F
:100160000DC0813024E0920728F423E025BDC0E4CF
:10017000D0E004C024E025BDC0E0D1E016BCBC0145
:1001800080E090E00E94B50B6B017C01BE0180E035
:1001900090E00E94B50B20E030E040E85DE30E9473
:1001A000430C9B01AC01C701B6010E94140B0E94D5
:1001B000860B67BDA89AA89BFECFDF91CF91FF90D9
:1001C000EF90DF90CF9008950F931F93CF93DF931D
:1001D0008C01C0E0D0E0C017D10731F088EE93E089
:1001E0000E94A2002196F7CFDF91CF911F910F912E
:1001F00008950F931F93CF93DF93EC010F8110E0CD
:1002000080E197E20E94A2008BB18077801719F0FD
:1002100010E0082FF5CF1F5F1430D8F389B1807735
:100220008F839A81FE01E90FF11D83838035B1F040
:10023000803619F08033A1F522C089818B3061F0BE
:1002400020F4873069F58AE232C08D3019F08E30A3
:1002500049F126C084E32BC087E329C089818B3014
:1002600061F020F48730E1F480E321C08D3019F093
:100270008E30D1F015C085E31AC088E318C089819B
:100280008B3061F020F4873059F483E210C08D3058
:1002900019F08E3059F004C086E309C089E307C025
:1002A00080E005C081E303C082E301C083E3DF9106
:1002B000CF911F910F910895FC0181818B3071F0D6
:1002C00088F08D3031F08E3069F48DE0818381E0EB
:1002D00003C08BE0818382E0828307C087E0818353
:1002E00083E0FACF8EE0818312828BB1807F8BB95D
:1002F0009BB18181892B8BB90895CF93DF93D82F40
:10030000C0E0C11118C0809126039091270329B144
:100310002077FC0127833281E30FF11D33812317FE
:1003200019F00E94F900C82F8091260390912703AD
:100330000E945C01E6CF80ED8C0F181614F0C0E02F
:10034000E2CFD817E4F3DF91CF910895CF9382E005
:100350000E947D01813021F0823019F4C0E001C09B
:10036000C1E08C2FCF910895299A85B18F7085B9FE
:1003700085B1962F907F892B85B92998299A85B1C7
:100380008F7085B925B130E16302C0011124822B41
:1003900085B92998613019F088E290E002C088E6BA
:1003A00096E00C94A200623009F440644150642F3E
:1003B00060680C94B401EF92FF920F931F93CF9358
:1003C0008C017B01289AC0E0F701EC0FF11D6081E0
:1003D000662329F0C8010E94B401CF5FF5CF2898A9
:1003E000CF911F910F91FF90EF9008951F93CF939E
:1003F000DF93EC01162F41E00E94D30164E071E02D
:10040000CE010E94DB0141E0612FCE01DF91CF914F
:100410001F910C94D301EF92FF920F931F93CF93F0
:10042000DF93EC017B018A0161E00E94F601B701D4
:10043000CE010E94DB0162E0CE010E94F601B8010C
:10044000CE01DF91CF911F910F91FF90EF900C940F
:10045000DB01CF93DF93EC0162E00E94F60161E0E3
:10046000CE01DF91CF910C94F601289A0E94B4013D
:1004700028980895EF92FF920F931F93CF93DF93E5
:10048000EC017B01042F89B180778F839A81FE0173
:10049000E90FF11D9381891729F0CE010E94F9001F
:1004A000182F01C010E0CE010E945C01112309F455
:1004B0003FC048814F5F62E0C7010E94D30188813D
:1004C00081110AC062E0C7010E94F60148814F5FB6
:1004D00062E0C7010E94D301002311F0612F01C027
:1004E0006AE2C7010E943502612F70E06053710912
:1004F000988144E050E0491B510980E021E030E060
:10050000EAE0A82FB0E0A417B50744F4D901EA9FA8
:100510009001EB9F300D11248F5FF3CF629FA001FC
:10052000639F500D729F500D11249F5F988302C0EE
:1005300040E050E0CA01DF91CF911F910F91FF90F1
:10054000EF900895EF92FF920F931F93CF93DF9355
:100550001F92CDB7DEB7E0912603F09127031082FA
:10056000E12CF12C082F880F110B41E0BE016F5FC9
:100570007F4F80912603909127030E943A02E80E54
:10058000F91EE0912603F0912703808190E0801707
:1005900091075CF325E030E0201B310B80E061E047
:1005A00070E09AE0482F50E04217530744F4AB0143
:1005B000949FB001959F700D11248F5FF3CFC701F9
:1005C0000E94900ACB010F90DF91CF911F910F9164
:1005D000FF90EF9008958F929F92AF92BF92CF922B
:1005E000DF92EF92FF920F931F93CF93DF93EC0173
:1005F0006A017B01CB01BA0120E13EE040E050E01E
:100600000E94A40A022F832E942EA52EC701B601A4
:1006100020EA3CE840E050E00E94A40AB22E60E3E9
:10062000620FCE010E94350216EF60E3600F1B9D42
:10063000600D1124CE010E9435026AE3CE010E94B2
:100640003502A0EFB1EF202F382D492D5A2D0E94F1
:10065000DE0AC60ED71EE81EF91EC701B6012CE33E
:1006600030E040E050E00E94A40A022F832E942E36
:10067000A52EC701B60128E532E040E050E00E9417
:10068000A40AB22E60E3620FCE010E94350260E33D
:10069000600F1B9D600D1124CE010E9435026AE39C
:1006A000CE010E943502A4ECBFEF202F382D492D3A
:1006B0005A2D0E94DE0AC60ED71EE81EF91EC7017B
:1006C000B6012AE030E040E050E00E94A40A022F88
:1006D00060E3620FCE010E94350280E38C0D682F2B
:1006E000109F600D1124CE01DF91CF911F910F91CA
:1006F000FF90EF90DF90CF90BF90AF909F908F9042
:100700000C9435021092F4028091F5029091F60259
:100710000E94290265E171E08091F5029091F60254
:100720000E94DB011092EF020E946800882309F406
:1007300081C04091FA025091FB026091FC027091DD
:10074000FD023091060320910703E4EFF2E080E020
:1007500090E0A28DAA2339F0128E46895789608DC8
:10076000718D382F292F019635968430910589F7A0
:100770004093FA025093FB026093FC027093FD02D7
:1007800030930603209307032B9841E062E08091A9
:10079000F5029091F6020E94D30166E271E0809129
:1007A000F5029091F6020E94DB0180ED97E00E9435
:1007B000E4008091F5029091F6020E9429022091B6
:1007C0000603309107038091F5029091F6022130E3
:1007D000310579F02CF4232B99F463E371E00EC01A
:1007E0002230310549F02330310551F462E671E0E1
:1007F00005C063E471E002C063E571E00E94DB01C3
:1008000041E062E08091F5029091F6020E94D301EE
:100810004091FA025091FB026091FC027091FD023E
:100820008091F5029091F6020E94EB0280ED97E034
:100830000C94E40008951F920F920FB60F921124AA
:100840002F938F939F93AF93BF938CED9BE09093E7
:10085000850080938400B09A8091D6029091D7024F
:1008600001969093D7028093D6028091D602909100
:10087000D702049761F58091F0029091F102A09166
:10088000F202B091F3020196A11DB11D8093F00216
:100890009093F102A093F202B093F3028091F002E0
:1008A0009091F102A091F202B091F302803891454B
:1008B000A140B10544F01092F0021092F1021092A2
:1008C000F2021092F3021092D7021092D602809197
:1008D000EF02882329F095B184E0892785B901C00A
:1008E0002A98BF91AF919F918F912F910F900FBE3A
:1008F0000F901F9018958F929F92AF92BF92EF9298
:10090000FF920F931F93CF93DF938FEF84B92898B3
:10091000299A85B18F7085B92D9A299888E290E03F
:100920000E94A20068E28EEE92E00E94B40166E0AE
:100930008EEE92E00E94B4016CE08EEE92E00E9496
:10094000B40167E18EEE92E00E94B40161E08EEEA8
:1009500092E00E94B4011092800083E080938100B5
:10096000109282008CED9BE0909385008093840030
:1009700084E294EF9093890080938800B09A81E09C
:1009800080936F0044EF5AE061E070E04093F00222
:100990005093F1026093F2027093F3021092D70227
:1009A0001092D6021092EF02509A519A529A539A8C
:1009B0005498559856985C9A5D9A5E9AA5EEB2E066
:1009C0001C929EE011969C93119712961C9212977E
:1009D0009BB1907F9BB99BB19E609BB999B1907779
:1009E00017969C93179790E713969C9313971496DA
:1009F0009C93149715969C93159716969C9316970F
:100A00002EED32E04DEE52E0E901598348831B821E
:100A10001C821D821E828A83E4EFF2E0128E178E02
:100A200014A211A6389839983A983B983C9A3D9A66
:100A3000579A9AE0892E912CA12CB12C82A693A6CC
:100A4000A4A6B5A66EEEE62E62E0F62EF282E18254
:100A500054834383558B448B858382869386A486F7
:100A6000B5860BED12E06DE177E8E80179836883E4
:100A70008A8368ED72E0C6E6AC2EC0E3BC2EEB01C3
:100A8000B982A8828A83C2E2D3E0F982E8825B83DA
:100A90004A83BD83AC83FF83EE83398728871B8716
:100AA0000A877D876C87DF91CF911F910F91FF900F
:100AB000EF90BF90AF909F908F900895CF93DF936A
:100AC0001F92CDB7DEB7789461E08EEE92E00E947F
:100AD000F60141E061E08EEE92E00E94D30144EF26
:100AE0005AE061E070E08EEE92E00E94EB02E12CB1
:100AF000F12C01E08091CE02811112C080910001A1
:100B000090910101A0910201B09103018093CA026A
:100B10009093CB02A093CC02B093CD020093CE026F
:100B20008091F0029091F102A091F202B091F30253
:100B30008093000190930101A0930201B0930301FF
:100B400040910001509101016091020170910301F7
:100B50008091CA029091CB02A091CC02B091CD02BB
:100B6000481759076A077B0749F180910001909166
:100B70000101A0910201B09103018093CA029093F8
:100B8000CB02A093CC02B093CD0280900001909054
:100B90000101A0900201B090030161E08EEE92E0AD
:100BA0000E94F60141E061E08EEE92E00E94D301E6
:100BB000B501A4018EEE92E00E94EB0240E0BE017E
:100BC0006F5F7F4F85EE92E00E943A02E80EF91EB9
:100BD0008091E502853009F038C323EFE21624E066
:100BE000F20609F0C5C210E0809122039091230320
:100BF0000E942902113049F0123061F0111114C025
:100C000041E751E062E871E009C04DE851E06EE96A
:100C100071E004C04FEA51E060EC71E08091220382
:100C2000909123030E940B0284E00E947D01282EF4
:100C3000880F3308F10183E01802E00DF11D112443
:100C40003197E930F10508F082C2EC5CFF4F8091EA
:100C50002203909123030C94C30A0E94290269EC99
:100C600071E080912203909123030E94DB0141E017
:100C700062E080912203909123030E94D30162EDF0
:100C800071E080912203909123030E94DB010E9476
:100C9000A601F82E80912203909123030E9429023D
:100CA00041E062E080912203909123030E94D301EE
:100CB00062EE71E080912203909123030E94DB0198
:100CC00041E061E080912203909123030E94D301CF
:100CD0006DEE71E080912203909123030E94DB016D
:100CE0008091220390912303FF2041F061E30E9451
:100CF0003502E0902C03F0902D0307C062E30E94C0
:100D00003502E0902E03F0902F030E94A601F70118
:100D1000828361C1C9010E9429026FE272E0809161
:100D20002203909123030E94DB0141E062E0809165
:100D30002203909123030E94D30182E00E94A20229
:100D40003C01CC97D4F7C090F002D090F102E09033
:100D5000F202F090F302C701B60120E13EE040E06C
:100D600050E00E94A40A49015A01A0EFB1EF0E948D
:100D7000DE0AC60ED71EE81EF91EC701B6012CE317
:100D800030E040E050E00E94A40AA4ECBFEF0E94D3
:100D9000DE0AC60ED71EE81EF91EA0E1BEE0A501C0
:100DA00094010E94D00A4B015C012CE330E0D30196
:100DB0000E94C90A860E971EA81EB91EC80CD91C0F
:100DC000EA1CFB1CC092F002D092F102E092F20207
:100DD000F092F30280912203909123030E94290252
:100DE00049E052E067E172E0809122039091230391
:100DF0000E940B0284E00E947D0120912203309129
:100E00002303823009F486CF833009F45CC081303B
:100E100009F0B5C0C9010E94290264E272E0809124
:100E20002203909123030E94DB0141E062E0809164
:100E30002203909123030E94D30182E00E94A20228
:100E40005C014997D4F7C090F002D090F102E09095
:100E5000F202F090F302C701B60120E13EE040E06B
:100E600050E00E94A40AA0EFB1EF0E94DE0AC60E75
:100E7000D71EE81EF91EC701B6012CE330E040E0A2
:100E800050E00E94A40A29013A0120E13EE0D50188
:100E90000E94C90A4B015C01ACE3B0E0A3019201DE
:100EA0000E94D00A860E971EA81EB91EA4ECBFEFA2
:100EB0000E94DE0AC60ED71EE81EF91E8C0C9D1C71
:100EC000AE1CBF1C53C0C9010E9429026CE372E032
:100ED00080912203909123030E94DB0141E062E0B4
:100EE00080912203909123030E94D30182E00E940B
:100EF000A2027C018CE3E816F104C4F78090F002B2
:100F00009090F102A090F202B090F302C501B401FA
:100F100020E13EE040E050E00E94A40A29013A01AD
:100F2000A0EFB1EF0E94DE0A680D791D8A1D9B1D9E
:100F30002CE330E040E050E00E94A40AACE3B0E0D3
:100F40000E94D00A4B015C01A0E1BEE0A301920126
:100F50000E94D00A860E971EA81EB91EC701FF0C5C
:100F6000AA0BBB0B880E991EAA1EBB1E8092F00214
:100F70009092F102A092F202B092F3022BCF843051
:100F800009F028CFE4C01F5F133008F4E0C010E080
:100F9000DEC00E9429026AE472E0809122039091EF
:100FA00023030E94DB0141E062E0809122039091E3
:100FB00023030E94D30162EE71E08091220390919D
:100FC00023030E94DB01E0902803F09029030E9494
:100FD000A601F701858380912203909123030E944B
:100FE000290266EF71E080912203909123030E9411
:100FF000DB0141E062E080912203909123030E9493
:10100000D3016EEF71E080912203909123030E943F
:10101000DB0188EE93E00E94E40099C00E9429025F
:101020006BE572E080912203909123030E94DB0123
:1010300041E062E080912203909123030E94D3015A
:1010400062EE71E080912203909123030E94DB0104
:10105000E0902A03F0902B0358CE0E9429026CE600
:1010600072E080912203909123030E94DB0141E012
:1010700062E080912203909123030E94D30169E7EB
:1010800072E080912203909123030E94DB010E9471
:10109000A601F82E80912203909123030E94290239
:1010A0008091220390912303FF2049F16AE872E0C6
:1010B0000E94DB0141E062E08091220390912303D2
:1010C0000E94D301E0902803F090290383E00E945E
:1010D000A202A0E0B0E0F70182879387A487B587DA
:1010E000E0912803F091290382859385A485B58535
:1010F0008F3F9105A105B10509F024F728C06BE9E0
:1011000072E00E94DB0141E062E080912203909155
:1011100023030E94D301E0902803F090290383E089
:101120000E94A202A0E0B0E0F70182A793A7A4A7C3
:10113000B5A7E0912803F091290382A593A5A4A562
:10114000B5A58F3F9105A105B10509F024F7F3E09E
:101150001F02200C311C112428E02216310409F052
:1011600043CD80912203909123030E94290269C0FC
:101170008091DB029091DC02E816F90621F480915F
:10118000DD0281110BC08091D8029091D902E8163E
:10119000F90651F58091DA02882331F18091F40249
:1011A000882319F00E9482032AC00093F4028091E0
:1011B000F0029091F102A091F202B091F3028093BB
:1011C000020390930303A0930403B093050380915B
:1011D000F5029091F6020E9429026DEA72E0809178
:1011E000F5029091F60209C062E08EEE92E00E9454
:1011F000F6016BEB72E08EEE92E00E94DB0188EE6E
:1012000093E00E94E400C090F002D090F102E090E0
:10121000F202F090F30261E08EEE92E00E94F6019D
:1012200041E061E08EEE92E00E94D301B701A60199
:101230008EEE92E00E94EB0262E08EEE92E00E945F
:10124000F6011092E502E12CF12C8091F402882342
:1012500009F46EC08091F0029091F102A091F20227
:10126000B091F30240910203509103036091040393
:1012700070910503841B950BA60BB70B4091FE02E2
:101280005091FF02609100037091010348175907C4
:101290006A077B070CF04CC084EFA82E82E0B82EC2
:1012A000F501828D882339F00E946800882309F4B3
:1012B0003FC02B9A3DC0359683E0E830F80789F7A8
:1012C000C12CD12C86B190E00C2C02C0959587954D
:1012D0000A94E2F780FF21C088EE93E00E94E400C8
:1012E00086B190E00C2C02C0959587950A94E2F7A0
:1012F00080FF13C00093EF02F501828D81110DC0B4
:101300008091F0029091F102A091F202B091F3026B
:10131000868B978BA08FB18F028FFFEFCF1ADF0ADA
:1013200025E0A20EB11C84E0C816D10459F6BCCF4A
:101330008091F0029091F102A091F202B091F3023B
:1013400080369445A105B10544F48091F4028111E1
:1013500004C08091F902811120C08091F002909127
:10136000F102A091F202B091F30281339B40A140BF
:10137000B1052CF08091E002811130C0CDC0809188
:10138000F0029091F102A091F202B091F30280314B
:101390009E40A105B10574F3BFC00093F402809193
:1013A000F0029091F102A091F202B091F3028093C9
:1013B000020390930303A0930403B0930503809169
:1013C000F5029091F6020E9429026DEA72E0809186
:1013D000F5029091F6020E94DB01BFCF8091E102FD
:1013E0009091E202A091E302B091E402892B8A2B52
:1013F0008B2B89F4449A8091F0029091F102A09194
:10140000F202B091F3028093E1029093E202A09382
:10141000E302B093E4024091F0025091F102609136
:10142000F2027091F3028091E1029091E202A091A8
:10143000E302B091E402481B590B6A0B7B0B4C335F
:1014400051056105710509F4459A4091F0025091EA
:10145000F1026091F2027091F302481B590B6A0B82
:101460007B0B4A3551056105710509F4449840919B
:10147000F0025091F1026091F2027091F302481B68
:10148000590B6A0B7B0B463951056105710509F44F
:101490005F9A4091F0025091F1026091F2027091D6
:1014A000F302481B590B6A0B7B0B443B510561054A
:1014B000710509F445984091F0025091F102609154
:1014C000F2027091F302481B590B6A0B7B0B423DF1
:1014D00051056105710509F45F984091F002509142
:1014E000F1026091F2027091F3025A016B01A81AA5
:1014F000B90ACA0ADB0A2EE0A21621E0B206C1042C
:10150000D10409F0F7CA1092E1021092E20210929F
:10151000E3021092E402EECA449845985F98EACA42
:10152000AA1BBB1B51E107C0AA1FBB1FA617B70709
:1015300010F0A61BB70B881F991F5A95A9F7809525
:101540009095BC01CD010895052E97FB1EF40094E3
:101550000E94BB0A57FD07D00E94E30A07FC03D094
:101560004EF40C94BB0A50954095309521953F4F11
:101570004F4F5F4F089590958095709561957F4F7F
:101580008F4F9F4F0895EE0FFF1F0590F491E02DB0
:1015900009940E94050BB7FF0895821B930B0895D1
:1015A0000E94050BA59F900DB49F900DA49F800DE8
:1015B000911D11240895B7FF0C94D00A0E94D00AFF
:1015C000821B930B0895A1E21A2EAA1BBB1BFD01DF
:1015D0000DC0AA1FBB1FEE1FFF1FA217B307E40712
:1015E000F50720F0A21BB30BE40BF50B661F771F6A
:1015F000881F991F1A9469F760957095809590954A
:101600009B01AC01BD01CF010895A29FB001B39F22
:10161000C001A39F700D811D1124911DB29F700DFB
:10162000811D1124911D08950E94280B0C94090C12
:101630000E94020C58F00E94FB0B40F029F45F3F1F
:1016400029F00C94F20B51110C943D0C0C94F80BF6
:101650000E941A0C68F39923B1F3552391F3951B5B
:10166000550BBB27AA2762177307840738F09F5FC3
:101670005F4F220F331F441FAA1FA9F335D00E2E30
:101680003AF0E0E832D091505040E695001CCAF79D
:101690002BD0FE2F29D0660F771F881FBB1F261760
:1016A00037074807AB07B0E809F0BB0B802DBF0137
:1016B000FF2793585F4F3AF09E3F510578F00C9406
:1016C000F20B0C943D0C5F3FE4F3983ED4F3869507
:1016D00077956795B795F7959F5FC9F7880F911D27
:1016E0009695879597F90895E1E0660F771F881F13
:1016F000BB1F621773078407BA0720F0621B730BC6
:10170000840BBA0BEE1F88F7E09508950E94220C17
:1017100088F09F5798F0B92F9927B751B0F0E1F0B2
:10172000660F771F881F991F1AF0BA95C9F714C062
:10173000B13091F00E943C0CB1E008950C943C0C47
:10174000672F782F8827B85F39F0B93FCCF386959B
:1017500077956795B395D9F73EF4909580957095F8
:1017600061957F4F8F4F9F4F0895E89409C097FB75
:101770003EF490958095709561957F4F8F4F9F4F68
:101780009923A9F0F92F96E9BB279395F6958795AC
:1017900077956795B795F111F8CFFAF4BB0F11F46F
:1017A00060FF1BC06F5F7F4F8F4F9F4F16C0882316
:1017B00011F096E911C0772321F09EE8872F762F4C
:1017C00005C0662371F096E8862F70E060E02AF08D
:1017D0009A95660F771F881FDAF7880F9695879579
:1017E00097F9089597F99F6780E870E060E00895A1
:1017F0009FEF80EC089500240A9416161706180629
:101800000906089500240A94121613061406050604
:101810000895092E0394000C11F4882352F0BB0F95
:1018200040F4BF2B11F460FF04C06F5F7F4F8F4FF8
:101830009F4F089557FD9058440F551F59F05F3F33
:1018400071F04795880F97FB991F61F09F3F79F0E2
:1018500087950895121613061406551FF2CF469564
:10186000F1DF08C0161617061806991FF1CF8695E6
:101870007105610508940895E894BB2766277727CA
:10188000CB0197F908950E94560C0C94090C0E9404
:10189000FB0B38F00E94020C20F0952311F00C9401
:1018A000F20B0C94F80B11240C943D0C0E941A0CB2
:1018B00070F3959FC1F3950F50E0551F629FF001A3
:1018C000729FBB27F00DB11D639FAA27F00DB11DBC
:1018D000AA1F649F6627B00DA11D661F829F222745
:1018E000B00DA11D621F739FB00DA11D621F839FCC
:1018F000A00D611D221F749F3327A00D611D231FA2
:10190000849F600D211D822F762F6A2F11249F57EF
:1019100050409AF0F1F088234AF0EE0FFF1FBB1FF2
:10192000661F771F881F91505040A9F79E3F5105B1
:1019300080F00C94F20B0C943D0C5F3FE4F3983E66
:10194000D4F3869577956795B795F795E7959F5F5B
:10195000C1F7FE2B880F911D9695879597F90895ED
:04196000F894FFCF29
:10196400F40A0100202020202020202020202020F4
:101974002020202000416C61726D652044657361F4
:10198400726D61646F00416C61726D6520746F6388
:101994006F750053656E736F72206A616E656C615A
:1019A40020310053656E736F72206A616E656C61DD
:1019B40020320053656E736F7220706F72746120F1
:1019C400310053656E736F7220706F7274612032D0
:1019D40000322D486F726172696F20332D4D616939
:1019E4007300312D5573756172696F7300322D5315
:1019F400696D756C202020332D4D61697300312D84
:101A0400417469766163616F204E6F697465003259
:101A14002D5361697220202020332D4D616973009C
:101A2400312D54656D706F7300557375C3A1726960
:101A34006F00312D557365723120322D55736572E7
:101A44003200312D4F6E20322D4F6666005573756E
:101A54006172696F20004573636F6C686100636F26
:101A64006E6669726D61646100332D536567202071
:101A7400342D5361697200312D486F726120322D0B
:101A84004D696E004E6F766120486F72613A004E68
:101A94006F766F204D696E75746F3A004E6F766F76
:101AA40020536567756E646F3A00417469766163AB
:101AB400616F204E6F7475726E610053696D756C41
:101AC4006163616F20646520507265004E6F766FAC
:101AD400732074656D706F7300312D4C696761728A
:101AE40020322D4465746563740054656D706F20F5
:101AF40070617261206C696761720054656D706F0A
:101B040020706172612064657465637400416C6166
:101B1400726D652041726D61646F0053454E48419A
:0A1B240020494E56414C494441004F
:00000001FF
