:100000000C943E000C9466000C9466000C94660000
:100010000C9466000C9466000C9466000C946600C8
:100020000C9466000C9466000C9466000C946600B8
:100030000C9466000C9476040C9466000C94660094
:100040000C9466000C9466000C9466000C94660098
:100050000C9466000C9466000C9466000C94660088
:100060000C9466000C9466009106560736083C080E
:1000700081083608CE0848093608D60411241FBE68
:10008000CFEFD8E0DEBFCDBF12E0A0E0B1E0EAE5FF
:10009000FAE102C005900D92AA3CB107D9F723E01E
:1000A000AAECB2E001C01D92A133B207E1F710E063
:1000B000CEE3D0E004C02197FE010E943E0BCD3379
:1000C000D107C9F70E94BA050C942B0D0C940000BF
:1000D0008F929F92AF92BF92CF92DF92EF92FF9258
:1000E000C0901F03D0902003E0902103F0902203E2
:1000F000E4EFF2E028E033E0838D8823A9F040911B
:10010000F0025091F1026091F2027091F30287883F
:10011000908CA18CB28C481959096A097B09C416C4
:10012000D506E606F7062CF035962E173F0721F781
:1001300080E0FF90EF90DF90CF90BF90AF909F90C6
:100140008F900895CF92DF92EF92FF92CF93DF933B
:1001500022E024BD8138910520F425BDC8E0D0E01F
:100160000DC0813024E0920728F423E025BDC0E4CF
:10017000D0E004C024E025BDC0E0D1E016BCBC0145
:1001800080E090E00E94300C6B017C01BE0180E0B9
:1001900090E00E94300C20E030E040E85DE30E94F7
:1001A000BE0C9B01AC01C701B6010E948F0B0E94DF
:1001B000010C67BDA89AA89BFECFDF91CF91FF905D
:1001C000EF90DF90CF9008950F931F93CF93DF931D
:1001D0008C01C0E0D0E0C017D10731F088EE93E089
:1001E0000E94A2002196F7CFDF91CF911F910F912E
:1001F00008950F931F93CF93DF93EC010F8110E0CD
:1002000080E197E20E94A2008BB18077801719F0FD
:1002100010E0082FF5CF1F5F1430D8F389B1807735
:100220008F839A81FE01E90FF11D83838035B1F040
:10023000803619F08033A1F522C089818B3061F0BE
:1002400020F4873069F58AE232C08D3019F08E30A3
:1002500049F126C084E32BC087E329C089818B3014
:1002600061F020F48730E1F480E321C08D3019F093
:100270008E30D1F015C085E31AC088E318C089819B
:100280008B3061F020F4873059F483E210C08D3058
:1002900019F08E3059F004C086E309C089E307C025
:1002A00080E005C081E303C082E301C083E3DF9106
:1002B000CF911F910F910895FC0181818B3071F0D6
:1002C00088F08D3031F08E3069F48DE0818381E0EB
:1002D00003C08BE0818382E0828307C087E0818353
:1002E00083E0FACF8EE0818312828BB1807F8BB95D
:1002F0009BB18181892B8BB90895CF93DF93D82F40
:10030000C0E0C11118C0809127039091280329B142
:100310002077FC0127833281E30FF11D33812317FE
:1003200019F00E94F900C82F8091270390912803AB
:100330000E945C01E6CF80ED8C0F181614F0C0E02F
:10034000E2CFD817E4F3DF91CF910895CF9382E005
:100350000E947D01813021F0823019F4C0E001C09B
:10036000C1E08C2FCF910895299A85B18F7085B9FE
:1003700085B1962F907F892B85B92998299A85B1C7
:100380008F7085B925B130E16302C0011124822B41
:1003900085B92998613019F088E290E002C088E6BA
:1003A00096E00C94A200623009F440644150642F3E
:1003B00060680C94B401EF92FF920F931F93CF9358
:1003C0008C017B01289AC0E0F701EC0FF11D6081E0
:1003D000662329F0C8010E94B401CF5FF5CF2898A9
:1003E000CF911F910F91FF90EF9008951F93CF939E
:1003F000DF93EC01162F41E00E94D30164E071E02D
:10040000CE010E94DB0141E0612FCE01DF91CF914F
:100410001F910C94D301EF92FF920F931F93CF93F0
:10042000DF93EC017B018A0161E00E94F601B701D4
:10043000CE010E94DB0162E0CE010E94F601B8010C
:10044000CE01DF91CF911F910F91FF90EF900C940F
:10045000DB01CF93DF93EC0162E00E94F60161E0E3
:10046000CE01DF91CF910C94F601289A0E94B4013D
:1004700028980895EF92FF920F931F93CF93DF93E5
:10048000EC017B01042F89B180778F839A81FE0173
:10049000E90FF11D9381891729F0CE010E94F9001F
:1004A000182F01C010E0CE010E945C01112309F455
:1004B0003FC048814F5F62E0C7010E94D30188813D
:1004C00081110AC062E0C7010E94F60148814F5FB6
:1004D00062E0C7010E94D301002311F0612F01C027
:1004E0006AE2C7010E943502612F70E06053710912
:1004F000988144E050E0491B510980E021E030E060
:10050000EAE0A82FB0E0A417B50744F4D901EA9FA8
:100510009001EB9F300D11248F5FF3CF629FA001FC
:10052000639F500D729F500D11249F5F988302C0EE
:1005300040E050E0CA01DF91CF911F910F91FF90F1
:10054000EF900895EF92FF920F931F93CF93DF9355
:100550001F92CDB7DEB7E0912703F09128031082F8
:10056000E12CF12C082F880F110B41E0BE016F5FC9
:100570007F4F80912703909128030E943A02E80E52
:10058000F91EE0912703F0912803808190E0801705
:1005900091075CF325E030E0201B310B80E061E047
:1005A00070E09AE0482F50E04217530744F4AB0143
:1005B000949FB001959F700D11248F5FF3CFC701F9
:1005C0000E940B0BCB010F90DF91CF911F910F91E8
:1005D000FF90EF9008958F929F92AF92BF92CF922B
:1005E000DF92EF92FF920F931F93CF93DF93EC0173
:1005F0006A017B01CB01BA0120E13EE040E050E01E
:100600000E941F0B022F832E942EA52EC701B60128
:1006100020EA3CE840E050E00E941F0BB22E60E36D
:10062000620FCE010E94350216EF60E3600F1B9D42
:10063000600D1124CE010E9435026AE3CE010E94B2
:100640003502A0EFB1EF202F382D492D5A2D0E94F1
:10065000590BC60ED71EE81EF91EC701B6012CE3C2
:1006600030E040E050E00E941F0B022F832E942EBA
:10067000A52EC701B60128E532E040E050E00E9417
:100680001F0BB22E60E3620FCE010E94350260E3C1
:10069000600F1B9D600D1124CE010E9435026AE39C
:1006A000CE010E943502A4ECBFEF202F382D492D3A
:1006B0005A2D0E94590BC60ED71EE81EF91EC701FF
:1006C000B6012AE030E040E050E00E941F0B022F0C
:1006D00060E3620FCE010E94350280E38C0D682F2B
:1006E000109F600D1124CE01DF91CF911F910F91CA
:1006F000FF90EF90DF90CF90BF90AF909F908F9042
:100700000C9435028F929F92AF92BF92EF92FF921C
:100710000F931F93CF93DF932091F4028091F50202
:100720009091F602222309F4B9C01092F4020E94BB
:10073000290265E171E08091F5029091F6020E9434
:10074000DB011092EF0280901F0390902003A09095
:100750002103B09022031091FB020091FC02F09063
:10076000FD02E090FE02D0910703C0910803E4EF80
:10077000F2E020E030E0838D811105C0812F902FC1
:10078000AF2DBE2D18C0138E4091F0025091F10292
:100790006091F2027091F3028789908DA18DB28DE4
:1007A000481B590B6A0B7B0B84169506A606B706E9
:1007B0002CF7D22FC32F2F5F3F4F359624303105B2
:1007C00029F0182F092FFA2EEB2ED5CF8093FB029C
:1007D0009093FC02A093FD02B093FE02D093070316
:1007E000C09308030E946800882309F474C02B9802
:1007F00041E062E08091F5029091F6020E94D301FF
:1008000066E271E08091F5029091F6020E94DB01B0
:1008100080ED97E00E94E4008091F5029091F6024D
:100820000E94290220910703309108038091F5026C
:100830009091F6022130310579F02CF4232B99F4B4
:1008400063E371E00EC02230310549F023303105F9
:1008500051F462E671E005C063E471E002C063E553
:1008600071E00E94DB0141E062E08091F50290912D
:10087000F6020E94D3014091FB025091FC0260916C
:10088000FD027091FE028091F5029091F6020E94A5
:10089000EB0280ED97E00E94E4001DC021E0209370
:1008A000F4024091F0025091F1026091F2027091D5
:1008B000F302409303035093040360930503709382
:1008C00006030E94290261E771E08091F502909190
:1008D000F6020E94DB01DF91CF911F910F91FF90F3
:1008E000EF90BF90AF909F908F9008951F920F92BE
:1008F0000FB60F9211242F938F939F93AF93BF93B3
:100900008CED9BE09093850080938400B09A809159
:10091000D6029091D70201969093D7028093D60287
:100920008091D6029091D702049761F58091F002F0
:100930009091F102A091F202B091F3020196A11DF3
:10094000B11D8093F0029093F102A093F202B09354
:10095000F3028091F0029091F102A091F202B09125
:10096000F30280389145A140B10544F01092F002A5
:100970001092F1021092F2021092F3021092D7023A
:100980001092D6028091EF02882329F095B184E07D
:10099000892785B901C02A98BF91AF919F918F9106
:1009A0002F910F900FBE0F901F9018958F929F92CE
:1009B000AF92BF92EF92FF920F931F93CF93DF936B
:1009C0008FEF84B92898299A85B18F7085B92D9AAF
:1009D000299888E290E00E94A20068E28EEE92E000
:1009E0000E94B40166E08EEE92E00E94B4016CE0D9
:1009F0008EEE92E00E94B40167E18EEE92E00E94DA
:100A0000B40161E08EEE92E00E94B4011092800089
:100A100083E080938100109282008CED9BE09093A4
:100A200085008093840084E294EF90938900809302
:100A30008800B09A81E080936F0044EF5AE061E053
:100A400070E04093F0025093F1026093F2027093D1
:100A5000F3021092D7021092D6021092EF02509A2F
:100A6000519A529A539A5498559856985C9A5D9A0E
:100A70005E9AA5EEB2E01C929EE011969C931197AF
:100A800012961C9212979BB1907F9BB99BB19E606E
:100A90009BB999B1907717969C93179790E7139607
:100AA0009C93139714969C93149715969C93159763
:100AB00016969C9316972EED32E04DEE52E0E9012A
:100AC000598348831B821C821D821E828A83E4EF25
:100AD000F2E0138E10A215A212A6389839983A980F
:100AE0003B983C9A3D9A579A9AE0892E912CA12CDA
:100AF000B12C83A694A6A5A6B6A66EEEE62E62E05D
:100B0000F62EF282E18254834383568B458B858394
:100B1000168283869486A586B6860BED12E06DE17B
:100B200077E8E801798368838A8368ED72E0C6E636
:100B3000AC2EC0E3BC2EEB01B982A8828A83C3E24B
:100B4000D3E0F982E8825B834A83BD83AC83FF8371
:100B5000EE83398728871B870A877D876C87DF911B
:100B6000CF911F910F91FF90EF90BF90AF909F900A
:100B70008F900895CF93DF9300D000D01F92CDB710
:100B8000DEB7789461E08EEE92E00E94F60141E0DB
:100B900061E08EEE92E00E94D30144EF5AE061E002
:100BA00070E08EEE92E00E94EB02E12CF12C80E1ED
:100BB000882E8EE0982EA12CB12C8091CE0281112E
:100BC00013C08091000190910101A0910201B091A8
:100BD00003018093CA029093CB02A093CC02B093FE
:100BE000CD0201E00093CE028091F0029091F102DB
:100BF000A091F202B091F302809300019093010161
:100C0000A0930201B09303014091000150910101B2
:100C100060910201709103018091CA029091CB0210
:100C2000A091CC02B091CD02481759076A077B0703
:100C300049F18091000190910101A0910201B091D0
:100C400003018093CA029093CB02A093CC02B0938D
:100C5000CD0240900001509001016090020170901F
:100C6000030161E08EEE92E00E94F60141E061E056
:100C70008EEE92E00E94D301B301A2018EEE92E0CB
:100C80000E94EB0240E0BE016F5F7F4F85EE92E075
:100C90000E943A02E80EF91E8091E502853009F0C3
:100CA00051C313EFE11614E0F10609F001C310E09F
:100CB00080912303909124030E942902113049F06E
:100CC000123061F0111114C04FE751E060E971E09A
:100CD00009C04BE951E06CEA71E004C04DEB51E012
:100CE0006EEC71E080912303909124030E940B022B
:100CF00084E00E947D01282E880F3308F10123E053
:100D00001202E00DF11D11243197E930F10508F0D0
:100D1000BFC2EC5CFF4F80912303909124030C949D
:100D20003E0B0E94290267ED71E0809123039091B0
:100D300024030E94DB0141E062E080912303909153
:100D400024030E94D30160EE71E08091230390910F
:100D500024030E94DB010E94A601082F8091230337
:100D6000909124030E94290241E062E080912303D4
:100D7000909124030E94D30160EF71E080912303DE
:100D8000909124030E94DB0141E061E08091230304
:100D9000909124030E94D3016BEF71E080912303B3
:100DA000909124030E94DB018091230390912403FE
:100DB000002341F061E30E943502E0902D03F090A2
:100DC0002E0307C062E30E943502E0902F03F090EB
:100DD00030030E94A601F701828370C1833009F4B9
:100DE000D6C0813009F026C1C9010E94290262E300
:100DF00072E080912303909124030E94DB0141E083
:100E000062E080912303909124030E94D30182E049
:100E10000E94A2023C014997D4F7C090F002D09002
:100E2000F102E090F202F090F302C701B601A501D1
:100E300094010E941F0BA0EFB1EF0E94590BC60E48
:100E4000D71EE81EF91EC701B6012CE330E040E0D2
:100E500050E00E941F0B2A833B834C835D8320E17B
:100E60003EE0D3010E94440B2B013C01ACE3B0E017
:100E70002A813B814C815D810E944B0B460E571E9F
:100E8000681E791EA4ECBFEF0E94590BC60ED71E38
:100E9000E81EF91E4C0C5D1C6E1C7F1C4092F0027B
:100EA0005092F1026092F2027092F3028091230359
:100EB000909124030E94290247E152E065E272E02A
:100EC00080912303909124030E940B0284E00E94EE
:100ED0007D012091230330912403823009F07ECFDD
:100EE000C9010E9429026DE372E080912303909171
:100EF00024030E94DB0141E062E080912303909192
:100F000024030E94D30182E00E94A2029B838A8371
:100F1000CC97CCF74090F0025090F1026090F20232
:100F20007090F302C301B201A50194010E941F0B4E
:100F300069017A01A0EFB1EF0E94590B460E571ECE
:100F4000681E791EC301B2012CE330E040E050E09E
:100F50000E941F0BA4ECBFEF0E94590B460E571EB8
:100F6000681E791EA0E1BEE0A70196010E944B0B0E
:100F70006B017C012CE330E0AA81BB810E94440B11
:100F8000DC01CB018C0D9D1DAE1DBF1D4EC0C901E6
:100F90000E9429026AE472E0809123039091240365
:100FA0000E94DB0141E062E08091230390912403E1
:100FB0000E94D30182E00E94A2029B838A83CC9785
:100FC000CCF74090F0025090F1026090F2027090E5
:100FD000F302C301B201A50194010E941F0B690134
:100FE0007A01A0EFB1EF0E94590B640D751D861DAB
:100FF000971D2CE330E040E050E00E941F0BACE373
:10100000B0E00E944B0B2B013C01A0E1BEE0A70128
:1010100096010E944B0B460E571E681E791E2A81B0
:101020003B81C901330FAA0BBB0B480E591E6A1E28
:101030007B1E34CF843009F039CFE0912B03F0913F
:101040002C031382148215821682E0912903F091F9
:101050002A038091F0029091F102A091F202B091E6
:10106000F3028787908BA18BB28B12C11F5F133065
:1010700008F40EC110E00CC10E94290268E572E07C
:1010800080912303909124030E94DB0141E062E000
:1010900080912303909124030E94D30160EF71E0BB
:1010A00080912303909124030E94DB01E0902903A7
:1010B000F0902A030E94A601F70185838091230303
:1010C000909124030E94290264E072E0809123033E
:1010D000909124030E94DB0141E062E080912303B0
:1010E000909124030E94D3016CE072E0809123036D
:1010F000909124030E94DB0188EE93E00E94E400BB
:10110000C7C00E94290269E672E080912303909192
:1011100024030E94DB0141E062E08091230390916F
:1011200024030E94D30160EF71E08091230390912A
:1011300024030E94DB01E0902B03F0902C030E941B
:10114000A601F701828380912303909124030E94DA
:10115000290264E072E080912303909124030E94AD
:10116000DB0141E062E080912303909124030E941F
:10117000D3016CE072E080912303909124030E94DC
:10118000DB0188EE93E00E94E400E0912B03F091F4
:101190002C0313821482158216827AC00E942902BF
:1011A0006AE772E080912303909124030E94DB019F
:1011B00041E062E080912303909124030E94D301D7
:1011C00067E872E080912303909124030E94DB0181
:1011D0000E94A601082F80912303909124030E946E
:1011E00029028091230390912403002349F168E9A7
:1011F00072E00E94DB0141E062E080912303909164
:1012000024030E94D301E0902903F0902A0383E095
:101210000E94A202A0E0B0E0F70183879487A5872F
:10122000B687E0912903F0912A0383859485A585EB
:10123000B6858F3F9105A105B10509F024F728C0B7
:1012400069EA72E00E94DB0141E062E080912303E1
:10125000909124030E94D301E0902903F0902A0387
:1012600083E00E94A202A0E0B0E0F70183A794A768
:10127000A5A7B6A7E0912903F0912A0383A594A519
:10128000A5A5B6A58F3F9105A105B10509F024F7E5
:10129000C101F3E01F02800D911D1124089709F090
:1012A00007CD80912303909124030E94290246C018
:1012B0008091DB029091DC02E816F90621F480911E
:1012C000DD0281110BC08091D8029091D902E816FD
:1012D000F90639F48091DA02882319F00E9482031A
:1012E0000BC062E08EEE92E00E94F6016BEB72E0C2
:1012F0008EEE92E00E94DB0188EE93E00E94E40013
:10130000C090F002D090F102E090F202F090F3026F
:1013100061E08EEE92E00E94F60141E061E08EEE27
:1013200092E00E94D301B701A6018EEE92E00E94E6
:10133000EB0262E08EEE92E00E94F6011092E5026E
:10134000E12CF12C8091F402882309F46DC0809186
:10135000F0029091F102A091F202B091F30240915B
:101360000303509104036091050370910603841BED
:10137000950BA60BB70B4091FF02509100036091B3
:10138000010370910203481759076A077B070CF0A5
:101390004BC004EF12E0F801838D882339F00E94DE
:1013A0006800882309F440C02B9A3EC0359628E097
:1013B00033E02E173F0781F7C12CD12C86B190E086
:1013C0000C2C02C0959587950A94E2F780FF22C005
:1013D00088EE93E00E94E40086B190E00C2C02C0FD
:1013E000959587950A94E2F780FF14C031E0309319
:1013F000EF02F801838D81110DC08091F002909170
:10140000F102A091F202B091F302878B908FA18F2D
:10141000B28F338FFFEFCF1ADF0A0B5F1F4F24E02D
:10142000C216D10459F6BBCF8091F0029091F1021F
:10143000A091F202B091F30280369445A105B10566
:101440008CF48091F902882369F08091FA0281116D
:1014500009C021E02093FA028091F402811102C0B8
:101460000E9482038091F0029091F102A091F20219
:10147000B091F30281369445A105B1055CF08091ED
:10148000FA02882339F01092FA028091F402811155
:101490000E9482038091F0029091F102A091F202E9
:1014A000B091F30281339B40A140B1052CF08091B3
:1014B000E002811112C00DC08091F0029091F10202
:1014C000A091F202B091F30280319E40A105B105D6
:1014D00074F3449845985F9870CB8091E1029091A5
:1014E000E202A091E302B091E402892B8A2B8B2BBC
:1014F00089F4449A8091F0029091F102A091F20255
:10150000B091F3028093E1029093E202A093E30290
:10151000B093E4024091F0025091F1026091F20226
:101520007091F3028091E1029091E202A091E302B6
:10153000B091E402481B590B6A0B7B0B4C335105ED
:101540006105710509F4459A4091F0025091F1024C
:101550006091F2027091F302481B590B6A0B7B0BEE
:101560004A3551056105710509F444984091F0022E
:101570005091F1026091F2027091F302481B590BF5
:101580006A0B7B0B463951056105710509F45F9AB9
:101590004091F0025091F1026091F2027091F302D9
:1015A000481B590B6A0B7B0B443B510561057105C8
:1015B00009F445984091F0025091F1026091F202D5
:1015C0007091F302481B590B6A0B7B0B423D51058E
:1015D0006105710509F45F984091F0025091F102A4
:1015E0006091F2027091F3028A019B01081B190BB2
:1015F0002A0B3B0BD901C8018E309140A105B105E2
:1016000009F0DBCA1092E1021092E2021092E302AA
:101610001092E402D2CAAA1BBB1B51E107C0AA1F49
:10162000BB1FA617B70710F0A61BB70B881F991F83
:101630005A95A9F780959095BC01CD010895052E86
:1016400097FB1EF400940E94360B57FD07D00E94B2
:101650005E0B07FC03D04EF40C94360B509540956E
:10166000309521953F4F4F4F5F4F0895909580954E
:10167000709561957F4F8F4F9F4F0895EE0FFF1F1D
:101680000590F491E02D09940E94800BB7FF089516
:10169000821B930B08950E94800BA59F900DB49F11
:1016A000900DA49F800D911D11240895B7FF0C94F7
:1016B0004B0B0E944B0B821B930B0895A1E21A2E39
:1016C000AA1BBB1BFD010DC0AA1FBB1FEE1FFF1FE6
:1016D000A217B307E407F50720F0A21BB30BE40B36
:1016E000F50B661F771F881F991F1A9469F760957D
:1016F0007095809590959B01AC01BD01CF01089537
:10170000A29FB001B39FC001A39F700D811D112442
:10171000911DB29F700D811D1124911D08950E948D
:10172000A30B0C94840C0E947D0C58F00E94760C44
:1017300040F029F45F3F29F00C946D0C51110C948A
:10174000B80C0C94730C0E94950C68F39923B1F3B8
:10175000552391F3951B550BBB27AA2762177307D7
:10176000840738F09F5F5F4F220F331F441FAA1F6B
:10177000A9F335D00E2E3AF0E0E832D09150504027
:10178000E695001CCAF72BD0FE2F29D0660F771FD5
:10179000881FBB1F261737074807AB07B0E809F0BB
:1017A000BB0B802DBF01FF2793585F4F3AF09E3F40
:1017B000510578F00C946D0C0C94B80C5F3FE4F379
:1017C000983ED4F3869577956795B795F7959F5F83
:1017D000C9F7880F911D9695879597F90895E1E0CF
:1017E000660F771F881FBB1F621773078407BA072E
:1017F00020F0621B730B840BBA0BEE1F88F7E09589
:1018000008950E949D0C88F09F5798F0B92F992752
:10181000B751B0F0E1F0660F771F881F991F1AF0DB
:10182000BA95C9F714C0B13091F00E94B70CB1E07D
:1018300008950C94B70C672F782F8827B85F39F07C
:10184000B93FCCF3869577956795B395D9F73EF474
:1018500090958095709561957F4F8F4F9F4F08951C
:10186000E89409C097FB3EF490958095709561953A
:101870007F4F8F4F9F4F9923A9F0F92F96E9BB27F0
:101880009395F695879577956795B795F111F8CF6C
:10189000FAF4BB0F11F460FF1BC06F5F7F4F8F4FD7
:1018A0009F4F16C0882311F096E911C0772321F0CD
:1018B0009EE8872F762F05C0662371F096E8862F65
:1018C00070E060E02AF09A95660F771F881FDAF7BC
:1018D000880F9695879597F9089597F99F6780E8FF
:1018E00070E060E008959FEF80EC089500240A9472
:1018F0001616170618060906089500240A941216EB
:101900001306140605060895092E0394000C11F41D
:10191000882352F0BB0F40F4BF2B11F460FF04C0CA
:101920006F5F7F4F8F4F9F4F089557FD9058440F23
:10193000551F59F05F3F71F04795880F97FB991F2E
:1019400061F09F3F79F087950895121613061406EB
:10195000551FF2CF4695F1DF08C016161706180678
:10196000991FF1CF86957105610508940895E89453
:10197000BB2766277727CB0197F908950E94D10CE2
:101980000C94840C0E94760C38F00E947D0C20F0A0
:10199000952311F00C946D0C0C94730C11240C9481
:1019A000B80C0E94950C70F3959FC1F3950F50E011
:1019B000551F629FF001729FBB27F00DB11D639F01
:1019C000AA27F00DB11DAA1F649F6627B00DA11DA7
:1019D000661F829F2227B00DA11D621F739FB00D4D
:1019E000A11D621F839FA00D611D221F749F3327BD
:1019F000A00D611D231F849F600D211D822F762F56
:101A00006A2F11249F5750409AF0F1F088234AF032
:101A1000EE0FFF1FBB1F661F771F881F915050409E
:101A2000A9F79E3F510580F00C946D0C0C94B80CF6
:101A30005F3FE4F3983ED4F3869577956795B79525
:101A4000F795E7959F5FC1F7FE2B880F911D96953F
:0A1A5000879597F90895F894FFCFE9
:101A5A00F40A0100202020202020202020202020FD
:101A6A002020202000416C61726D652044657361FD
:101A7A00726D61646F00416C61726D6520746F6391
:101A8A006F750053656E736F72206A616E656C6163
:101A9A0020310053656E736F72206A616E656C61E6
:101AAA0020320053656E736F7220706F72746120FA
:101ABA00310053656E736F7220706F7274612032D9
:101ACA0000416C61726D652041726D61646F003214
:101ADA002D486F726172696F20332D4D61697300F1
:101AEA00312D5573756172696F7300322D53696DAB
:101AFA00756C202020332D4D61697300312D41749E
:101B0A0069766163616F204E6F69746500322D5387
:101B1A0061697220202020332D4D61697300312DB7
:101B2A0054656D706F7300557375C3A172696F0048
:101B3A00312D557365723120322D5573657232001D
:101B4A00312D4F6E20322D4F6666005573756172C6
:101B5A00696F20004573636F6C686100636F6E661E
:101B6A0069726D61646100332D5365672020342DDD
:101B7A005361697200312D486F726120322D4D69AF
:101B8A006E004E6F766120486F72613A004E6F7632
:101B9A006F204D696E75746F3A004E6F766F2053E1
:101BAA006567756E646F3A00417469766163616F47
:101BBA00204E6F7475726E610053696D756C616346
:101BCA00616F20646520507265004E6F766F7320D6
:101BDA0074656D706F7300312D4C696761722032C4
:101BEA002D4465746563740054656D706F2070616F
:101BFA007261206C696761720054656D706F207044
:101C0A00617261206465746563740053454E48418E
:0A1C1A0020494E56414C4944410058
:00000001FF
